:100000000C94B3110C94DB110C94DB110C94DB11E8
:100010000C94DB110C94DB110C94DB110C94DB11B0
:100020000C94DB110C94DB110C9499380C9403396B
:100030000C94DB110C94DB110C94DB110C94DB1190
:100040000C94DB110C94DB110C94DB110C94DB1180
:100050000C94DB110C94DB110C94DB110C94F8372D
:100060000C94DB110C9404340C942A340C94543406
:100070000C94DB110C94DB110C94DB110C94DB1150
:100080000C94DB110C94DB110C94DB110C94DB1140
:100090000C94CE250C94DB110C94DB110C94DB1129
:1000A0000C94DB110C94DB110C94DB1120423A0010
:1000B0005B204261636B205D00202020002D3E20EC
:1000C0000043686F3A2000202020002D3E20002AA7
:1000D00020005265763A2000202020002D3E20008E
:1000E0002A2000566F6C3A2000202020002D3E2050
:1000F000002A20004D494449204368616E3A20207F
:1001000043482000202020002D3E20002A20005BB4
:10011000204261636B205D00202020002D3E2000E6
:1001200043686F727573204C766C3A200020202053
:10013000002D3E2000202A20005265766572622044
:100140004C766C3A2000202020002D3E2000202AF2
:1001500020004D617374657220566F6C3A20002048
:100160002020002D3E2000202A20002D2D20474C4D
:100170004F42414C2045464645435453202D2D00C7
:100180002020205B204261636B205D002D3E205BC0
:10019000204261636B205D002020204D542D3332BE
:1001A000204D6F6465002D3E204D542D3332204D7F
:1001B0006F646500202020474D20526573657400F0
:1001C0002D3E20474D205265736574002020204746
:1001D00053205265736574002D3E204753205265AD
:1001E000736574002D2D2D205359534558205245C9
:1001F00053455453202D2D2D00202020457869741F
:10020000204D656E75002D3E2045786974204D6542
:100210006E75002020204368616E6E656C204D690C
:10022000786572002D3E204368616E6E656C204DCE
:100230006978657200202020476C6F62616C2046EF
:1002400058002D3E20476C6F62616C20465800209C
:100250002020537973457820526573657473002D9F
:100260003E20537973457820526573657473002D71
:100270002D2D2053595354454D204D454E55202D7D
:100280002D2D0020503A002F003E205363726F6CDA
:100290006C2050617463686573003E205363726F15
:1002A0006C6C204472756D204B69747300416374EB
:1002B0003A20003E204368616E6765204368616EA6
:1002C0006E656C003E204368616E67652043682060
:1002D000284452554D2900564F4C3A004143543A58
:1002E0000043483A00524F4C414E44205343422D64
:1002F00035356377003E3E204D542D333220456D19
:10030000756C6174696F6E003E3E20474D204D6FE5
:100310006465205265736574003E3E204753204D4E
:100320006F64652052657365740053656E64696E11
:10033000672053797345782E2E2E00436C656172C9
:10034000696E67203136204368616E732E2E2E0051
:10035000212150414E494321210000005374616E18
:100360006461726420536574000000000008526FDD
:100370006F6D205365740000000000000000001045
:10038000506F776572205365740000000000000014
:100390000018456C656374726F6E696320536574F1
:1003A0000000001954522D38303820536574000075
:1003B0000000000000204A617A7A20536574000032
:1003C0000000000000000028427275736820536529
:1003D000740000000000000000304F726368657315
:1003E0007472612053657400000000385346582031
:1003F000536574000000000000000000007F434DC2
:100400002D36342F33324C20536574000000000029
:100410005069616E6F203100000000000000000094
:1004200000015069616E6F20320000000000000082
:10043000000000025069616E6F2033000000000070
:10044000000000000003486F6E6B792D746F6E6BB7
:100450000000000000000004452E5069616E6F200E
:1004600031000000000000000005452E5069616E5B
:100470006F2032000000000000000006486172702A
:10048000736963686F726400000000000007436CCA
:1004900061762E000000000000000000000000084F
:1004A00043656C657374610000000000000000008B
:1004B0000009476C6F636B656E737069656C000053
:1004C0000000000A4D7573696320426F78000000D8
:1004D00000000000000B566962726170686F6E6503
:1004E000000000000000000C4D6172696D62610047
:1004F0000000000000000000000D58796C6F70686B
:100500006F6E6500000000000000000E54756275FB
:100510006C61722D62656C6C00000000000F53610D
:100520006E747572000000000000000000000010F2
:100530004F7267616E203100000000000000000073
:1005400000114F7267616E20320000000000000051
:10055000000000124F7267616E203300000000003F
:10056000000000000013436875726368204F7267D3
:10057000616E00000000001452656564204F7267D0
:10058000616E00000000000000154163636F72643B
:10059000696F6E2046722E00000000164861726D71
:1005A0006F6E696361000000000000000017426187
:1005B0006E646F6E656F6E00000000000000001832
:1005C0004E796C6F6E2D7374722E477400000000AC
:1005D0000019537465656C2D7374722E4774000096
:1005E0000000001A4A617A7A2047756974617200C6
:1005F00000000000001B436C65616E204775697444
:10060000617200000000001C4D7574656420477520
:100610006974617200000000001D4F76657264729B
:1006200069766520477400000000001E44697374F9
:100630006F7274696F6E204774000000001F47746A
:100640002E4861726D6F6E696373000000000020B8
:1006500041636F75737469632042617373000000B6
:10066000002146696E67657265642042617373009C
:10067000000000225069636B65642042617373005F
:10068000000000000023467265746C65737320429D
:100690006173730000000024536C61702042617329
:1006A00073203100000000000025536C617020426F
:1006B00061737320320000000000002653796E74CD
:1006C00068204261737320310000000000275379D5
:1006D0006E746820426173732032000000000028AD
:1006E00056696F6C696E0000000000000000000099
:1006F000002956696F6C61000000000000000000D6
:100700000000002A43656C6C6F00000000000000D0
:1007100000000000002B436F6E747261626173739E
:10072000000000000000002C5472656D6F6C6F209B
:100730005374720000000000002D50697A7A6963DA
:1007400061746F20537472000000002E4F72636852
:1007500065737472616C486172700000002F546997
:100760006D70616E69000000000000000000003044
:10077000537472696E6720456E732E20310000003D
:100780000031537472696E6720456E732E203200FB
:100790000000003253796E7468537472696E677327
:1007A00020310000003353796E7468537472696E9F
:1007B000677320320000003443686F697220416122
:1007C00068730000000000000035566F6963652003
:1007D0004F6F6873000000000000003653796E749C
:1007E0006820566F780000000000000000374F724C
:1007F0006368657374726120486974000000003892
:100800005472756D706574000000000000000000F7
:10081000003954726F6D626F6E6500000000000059
:100820000000003A54756261000000000000000002
:1008300000000000003B4D75746564205472756DB6
:10084000706574000000003C4672656E6368204865
:100850006F726E0000000000003D427261737320F1
:1008600053656374696F6E310000003E53796E7496
:10087000682042726173732031000000003F537999
:100880006E74682042726173732032000000004071
:10089000536F7072616E6F2053617800000000002A
:1008A0000041416C746F205361780000000000002B
:1008B0000000004254656E6F7220536178000000A2
:1008C00000000000004342617269746F6E6520533E
:1008D00061780000000000444F626F650000000076
:1008E00000000000000000000045456E676C697361
:1008F0006820486F726E000000000046426173730A
:100900006F6F6E0000000000000000000047436CA5
:100910006172696E6574000000000000000000480C
:10092000506963636F6C6F000000000000000000FE
:100930000049466C7574650000000000000000006E
:100940000000004A5265636F726465720000000027
:1009500000000000004B50616E20466C757465000D
:10096000000000000000004C426F74746C6520426F
:100970006C6F770000000000004D5368616B756874
:1009800061636869000000000000004E57686973E9
:10099000746C65000000000000000000004F4F6311
:1009A0006172696E610000000000000000000050EC
:1009B0005371756172652057617665000000000013
:1009C00000515361772057617665000000000000F8
:1009D0000000005253796E2043616C6C696F706542
:1009E00000000000005343686966666572204C652C
:1009F000616400000000005443686172616E67002A
:100A000000000000000000000055536F6C6F20567E
:100A10006F78000000000000000000563574682068
:100A200053617720576176650000000000574261EE
:100A300073732026204C656164000000000000589C
:100A400046616E746173696100000000000000007F
:100A500000595761726D2050616400000000000071
:100A60000000005A506F6C7973796E746800000052
:100A700000000000005B537061636520566F69637E
:100A8000650000000000005C426F77656420476CE1
:100A90006173730000000000005D4D6574616C209F
:100AA00050616400000000000000005E48616C6F4F
:100AB000205061640000000000000000005F5377D8
:100AC0006565702050616400000000000000006057
:100AD000496365205261696E00000000000000005B
:100AE0000061536F756E64747261636B0000000087
:100AF000000000624372797374616C0000000000B2
:100B000000000000006341746D6F7370686572656A
:100B100000000000000000644272696768746E653E
:100B200073730000000000000065476F626C696E1F
:100B30000000000000000000000000664563686FD0
:100B40002044726F7073000000000000006753744F
:100B50006172205468656D65000000000000006847
:100B60005369746172000000000000000000000082
:100B7000006942616E6A6F00000000000000000022
:100B80000000006A5368616D6973656E00000000C3
:100B900000000000006B4B6F746F0000000000004D
:100BA000000000000000006C4B616C696D62610028
:100BB0000000000000000000006D42616770697075
:100BC00065000000000000000000006E46696464DB
:100BD0006C6500000000000000000000006F53681A
:100BE000616E6169000000000000000000000070FC
:100BF00054696E6B6C652042656C6C0000000000EF
:100C0000007141676F676F00000000000000000086
:100C100000000072537465656C204472756D73003A
:100C2000000000000073576F6F64626C6F636B00AD
:100C300000000000000000745461696B6F20447272
:100C4000756D00000000000000754D656C6F6469F3
:100C50006320546F6D0000000000007653796E74BD
:100C600068204472756D0000000000000077526536
:100C7000766572736543796D62616C00000000787F
:100C800047742E46726574204E6F697365000000CC
:100C90000079427265617468204E6F697365000067
:100CA0000000007A53656173686F72650000000090
:100CB00000000000007B426972642054776565740F
:100CC000000000000000007C54656C6570686F6E69
:100CD0006520310000000000007D48656C69636F8D
:100CE00070746572000000000000007E4170706C3E
:100CF000617573650000000000000000007F47750B
:100D00006E73686F74000000000000000000012690
:100D100053796E7468204261737320313031000062
:100D2000013954726F6D626F6E65203200000000F1
:100D30000000013C4672656E636820486F726E2049
:100D400032000000015053717561726500000000AF
:100D50000000000000000151536177000000000016
:100D60000000000000000000016253796E204D6118
:100D70006C6C657400000000000001664563686FDC
:100D80002042656C6C00000000000000016853699F
:100D90007461722032000000000000000000017841
:100DA00047742E20437574204E6F697365000000F0
:100DB0000179466C2E4B657920436C69636B0000AA
:100DC0000000017A5261696E00000000000000001E
:100DD00000000000017B446F67204261726B0000DD
:100DE000000000000000017C54656C6570686F6E47
:100DF0006520320000000000017D43617220456ED5
:100E000067696E65000000000000017E4C61756737
:100E100068696E670000000000000000017F4D61FE
:100E20006368696E652047756E0000000000026609
:100E30004563686F2050616E0000000000000000F4
:100E40000278537472696E6720536C617000000001
:100E50000000027A5468756E64657200000000003C
:100E600000000000027B486F7273652047616C6C64
:100E70006F7000000000027C446F6F722043726547
:100E8000616B696E67000000027D436172205374DC
:100E90006F700000000000000000027E5363726566
:100EA000616D696E6700000000000000027F4C6108
:100EB00073657267756E0000000000000000037A21
:100EC00057696E6400000000000000000000000090
:100ED000037B426972642054776565742032000098
:100EE0000000037C446F6F7220536875740000002B
:100EF00000000000037D43617220506173730000A5
:100F0000000000000000037E50756E636800000062
:100F10000000000000000000037F4578706C6F73D4
:100F2000696F6E00000000000000047A537472655F
:100F3000616D00000000000000000000047C5363AD
:100F40007261746368204D69780000000000047DC0
:100F5000436172204372617368000000000000006A
:100F6000047E48656172746265617400000000006F
:100F70000000057A427562626C65000000000000A6
:100F800000000000057C57696E64204368696D6548
:100F9000000000000000057D536972656E000000CE
:100FA0000000000000000000057E466F6F7473743F
:100FB00065707300000000000000067D54726169D6
:100FC0006E0000000000000000000000077D4A6580
:100FD00074706C616E650000000000000000080085
:100FE0005069616E6F203177000000000000000042
:100FF00008015069616E6F20327700000000000028
:10100000000008025069616E6F2033770000000015
:10101000000000000803486F6E6B792D746F6E6BD3
:101020002077000000000804446574756E65642034
:1010300045502031000000000805446574756E6558
:10104000642045502032000000000806436F757090
:101050006C6564204870732E00000000080B566910
:1010600062726170686F6E65207700000000080C86
:101070004D6172696D626120770000000000000020
:10108000080E4368757263682042656C6C0000004E
:1010900000000810446574756E6564204F726761C6
:1010A0006E2031000811446574756E6564204F72BE
:1010B00067616E2032000813436875726368204FC1
:1010C0007267616E2032000008154163636F7264BD
:1010D000696F6E2049742E0000000818556B756CFE
:1010E000656C650000000000000000000819313246
:1010F0002D7374722E477569746172000000081AAE
:10110000486177616969616E2047742E00000000B4
:10111000081B43686F7275732047742E000000002F
:101120000000081C46756E6B2047742E00000000FE
:1011300000000000081E466565646261636B20471D
:10114000742E00000000081F47742E204665656459
:101150006261636B00000000082653796E7468209A
:1011600042617373203300000000082753796E74C6
:101170006820426173732034000000000828536C1B
:101180006F772056696F6C696E00000000000830B0
:101190004F726368657374726100000000000000A4
:1011A000083253796E746820537472696E677333B2
:1011B0000000083D4272617373203200000000009D
:1011C00000000000083E53796E746820427261731B
:1011D000732033000000083F53796E746820427218
:1011E0006173732034000000085053696E65205706
:1011F000617665000000000000000851446F6374D0
:101200006F7220536F6C6F0000000000086B546118
:101210006973686F204B6F746F00000000000873E3
:1012200043617374616E6574730000000000000018
:101230000874436F6E636572742042617373447205
:10124000000008754D656C6F2E20546F6D203200C4
:1012500000000000087638303820546F6D00000020
:10126000000000000000087D5374617273686970AB
:101270000000000000000000090E436172696C6C00
:101280006F6E00000000000000000976456C656389
:10129000205065726300000000000000097D427567
:1012A000727374204E6F69736500000000001000B7
:1012B0005069616E6F203164000000000000000082
:1012C0001004452E5069616E6F20317600000000D9
:1012D00000001005452E5069616E6F2032760000C7
:1012E00000000000100648617270736963686F72D5
:1012F0006420770000001010363073204F72676151
:101300006E2031000000000010134368757263689E
:10131000204F7267616E2033000010184E796C6F99
:101320006E2047742E206F000000000010194D61E0
:101330006E646F6C696E0000000000000000101CFD
:1013400046756E6B2047742E2032000000000000AE
:10135000102752756262657220426173730000004B
:101360000000103E416E616C6F67204272617373C2
:1013700020310000103F416E616C6F672042726146
:10138000737320320000180436307320452E5069E4
:10139000616E6F000000000018064861727073698A
:1013A0002E6F000000000000000020104F726761E7
:1013B0006E203400000000000000000020114F7279
:1013C00067616E203500000000000000000020185A
:1013D0004E796C6F6E2047742E20320000000000A2
:1013E000203443686F6972204161687320320000C5
:1013F00000007F004D5433322041636F75506961A6
:101400006E6F31007F014D5433322041636F755050
:1014100069616E6F32007F024D5433322041636F39
:10142000755069616E6F33007F034D543332204530
:101430006C65635069616E6F31007F044D543332C7
:1014400020456C65635069616E6F32007F054D54B5
:10145000333220456C65635069616E6F33007F06DF
:101460004D54333220456C65635069616E6F3400B2
:101470007F074D54333220486F6E6B79746F6E6BFB
:1014800000007F084D54333220456C6563204F7255
:10149000672031007F094D54333220456C6563204D
:1014A0004F72672032007F0A4D54333220456C65FD
:1014B00063204F72672033007F0B4D543332204539
:1014C0006C6563204F72672034007F0C4D543332BB
:1014D0002050697065204F72672031007F0D4D5498
:1014E00033322050697065204F72672032007F0EC2
:1014F0004D5433322050697065204F72672033009D
:101500007F0F4D543332204163636F7264696F6E95
:1015100000007F104D54333220486172707369208F
:10152000310000007F114D543332204861727073D6
:101530006920320000007F124D543332204861721E
:1015400070736920330000007F134D543332204301
:101550006C6176692031000000007F144D543332F5
:1015600020436C6176692032000000007F154D54E5
:10157000333220436C6176692033000000007F160F
:101580004D5433322043656C657374612031000023
:101590007F174D5433322043656C6573746120327C
:1015A00000007F184D5433322053796E204272610F
:1015B000737331007F194D5433322053796E2042BA
:1015C0007261737332007F1A4D5433322053796E37
:1015D00020427261737333007F1B4D5433322053AA
:1015E000796E20427261737334007F1C4D54333224
:1015F0002053796E20426173732031007F1D4D545A
:1016000033322053796E20426173732032007F1E83
:101610004D5433322053796E20426173732033006E
:101620007F1F4D5433322053796E204261737320F3
:1016300034007F204D5433322046616E74617379DB
:10164000000000007F214D543332204861726D6FDD
:101650002050616E00007F224D5433322043686F6A
:1016600072616C65000000007F234D5433322047C7
:101670006C6173736573000000007F244D54333236
:1016800020536F756E64747261636B007F254D54D7
:1016900033322041746D6F737068657265007F2608
:1016A0004D543332205761726D2042656C6C0000DE
:1016B0007F274D5433322046756E6E7920566F78F1
:1016C00000007F284D543332204563686F20426507
:1016D0006C6C00007F294D543332204963652052E1
:1016E00061696E0000007F2A4D543332204F626FD3
:1016F00065203230303100007F2B4D54333220458D
:1017000063686F2050616E0000007F2C4D543332AF
:1017100020446F63746F72536F6C6F007F2D4D5454
:101720003332205363686F6F6C44617A65007F2E9B
:101730004D5433322042656C6C73696E676572007C
:101740007F2F4D5433322053717561726557617626
:1017500065007F304D5433322053747220536563DB
:10176000742031007F314D54333220537472205332
:101770006563742032007F324D54333220537472CB
:1017800020536563742033007F334D54333220502F
:10179000697A7A696361746F00007F344D54333223
:1017A0002056696F6C696E20310000007F354D5402
:1017B00033322056696F6C696E20320000007F362C
:1017C0004D5433322043656C6C6F203100000000B3
:1017D0007F374D5433322043656C6C6F20320000EC
:1017E00000007F384D54333220436F6E7472616253
:1017F000617373007F394D54333220486172702019
:101800003100000000007F3A4D54333220486172AD
:1018100070203200000000007F3B4D5433322047DF
:10182000756974617220310000007F3C4D54333281
:101830002047756974617220320000007F3D4D546D
:10184000333220456C6563204774722031007F3E3F
:101850004D54333220456C6563204774722032004A
:101860007F3F4D5433322053697461720000000091
:1018700000007F404D5433322041636F7520426138
:10188000737331007F414D5433322041636F7520B3
:101890004261737332007F424D54333220456C6590
:1018A00063204261737331007F434D5433322045CE
:1018B0006C6563204261737332007F444D54333250
:1018C00020536C6170204261737331007F454D5429
:1018D000333220536C6170204261737332007F4653
:1018E0004D54333220467265746C65737320310039
:1018F0007F474D54333220467265746C6573732094
:1019000032007F484D54333220466C757465203167
:10191000000000007F494D54333220466C757465D9
:101920002032000000007F4A4D543332205069635A
:10193000636F6C6F203100007F4B4D543332205069
:101940006963636F6C6F203200007F4C4D543332FB
:10195000205265636F726465720000007F4D4D54C4
:1019600033322050616E20506970657300007F4EE5
:101970004D543332205361782031000000000000C4
:101980007F4F4D54333220536178203200000000E5
:1019900000007F504D5433322053617820330000D3
:1019A000000000007F514D543332205361782034C1
:1019B0000000000000007F524D54333220436C6120
:1019C00072696E65742031007F534D543332204369
:1019D0006C6172696E65742032007F544D543332ED
:1019E000204F626F65000000000000007F554D54DD
:1019F000333220456E676C20486F726E00007F5650
:101A00004D54333220426173736F6F6E00000000DB
:101A10007F574D543332204861726D6F6E69636138
:101A200000007F584D543332205472756D706574C8
:101A3000203100007F594D543332205472756D703F
:101A40006574203200007F5A4D5433322054726F37
:101A50006D626F6E652031007F5B4D5433322054D0
:101A6000726F6D626F6E652032007F5C4D54333251
:101A700020467220486F726E203100007F5D4D5409
:101A8000333220467220486F726E203200007F5E33
:101A90004D54333220547562610000000000000094
:101AA0007F5F4D543332204272732053656374203C
:101AB00031007F604D54333220427273205365638E
:101AC000742032007F614D543332205669626520A4
:101AD0003100000000007F624D54333220566962AD
:101AE00065203200000000007F634D5433322053E4
:101AF000796E204D616C6C6574007F644D54333297
:101B00002057696E6462656C6C0000007F654D54FF
:101B1000333220476C6F636B0000000000007F666B
:101B20004D54333220547562652042656C6C000060
:101B30007F674D5433322058796C6F70686F6E65D3
:101B400000007F684D543332204D6172696D6261CF
:101B5000000000007F694D543332204B6F746F00DA
:101B60000000000000007F6A4D5433322053686F3C
:101B700000000000000000007F6B4D543332205302
:101B800068616B756861636869007F6C4D543332BE
:101B90002057686973746C65203100007F6D4D5467
:101BA00033322057686973746C65203200007F6E91
:101BB0004D54333220426F74746C65626C6F7700E1
:101BC0007F6F4D5433322042726561746870697062
:101BD00065007F704D5433322054696D70616E69B9
:101BE000000000007F714D543332204D656C6F64EE
:101BF0006963546F6D007F724D54333220446565C4
:101C00007020536E617265007F734D5433322045EE
:101C10006C6563205065726331007F744D543332BC
:101C200020456C6563205065726332007F754D54AA
:101C30003332205461696B6F0000000000007F7632
:101C40004D543332205461696B6F2052696D00002E
:101C50007F774D5433322043796D62616C00000010
:101C600000007F784D5433322043617374616E6598
:101C7000747300007F794D54333220547269616E61
:101C8000676C650000007F7A4D543332204F7263D9
:101C900068652048697400007F7B4D5433322054BE
:101CA000656C6570686F6E6500007F7C4D543332E3
:101CB0002042697264203200000000007F7D4D5494
:101CC00033322031204E6F7465204A616D007F7E73
:101CD0004D5433322057617465722042656C6C003C
:101CE0007F7F4D543332204A756E676C6554756E34
:101CF000650000000000003E5B4F5B3E3E6B4F6B9B
:101D00003E1C3E7C3E1C183C7E3C181C577D571CDC
:101D10001C5E7F5E1C00183C1800FFE7C3E7FF0055
:101D200018241800FFE7DBE7FF30483A060E2629A3
:101D3000792926407F050507407F05253F5A3CE766
:101D40003C5A7F3E1C1C08081C1C3E7F14227F222C
:101D5000145F5F005F5F06097F017F006689956AF7
:101D6000606060606094A2FFA29408047E04081082
:101D7000207E201008082A1C08081C2A08081E10AB
:101D80001010100C1E0C1E0C30383E3830060E3E63
:101D90000E06000000000000005F000000070007C2
:101DA00000147F147F14242A7F2A122313086462EC
:101DB00036495620500008070300001C224100004D
:101DC00041221C002A1C7F1C2A08083E08080080AB
:101DD0007030000808080808000060600020100843
:101DE00004023E5149453E00427F40007249494944
:101DF000462141494D331814127F10274545453976
:101E00003C4A494931412111090736494949364679
:101E10004949291E00001400000040340000000859
:101E200014224114141414140041221408020159FC
:101E300009063E415D594E7C1211127C7F49494989
:101E4000363E414141227F4141413E7F494949411E
:101E50007F090909013E414151737F0808087F004D
:101E6000417F41002040413F017F081422417F40D3
:101E70004040407F021C027F7F0408107F3E4141AA
:101E8000413E7F090909063E4151215E7F0919291A
:101E900046264949493203017F01033F4040403F04
:101EA0001F2040201F3F4038403F63140814630345
:101EB000047804036159494D43007F4141410204C4
:101EC000081020004141417F0402010204404040CB
:101ED0004040000307080020545478407F284444C1
:101EE000383844444428384444287F3854545418DB
:101EF00000087E090218A4A49C787F0804047800D6
:101F0000447D40002040403D007F102844000041B7
:101F10007F40007C047804787C08040478384444CA
:101F20004438FC1824241818242418FC7C080404C1
:101F300008485454542404043F44243C4040207C2A
:101F40001C2040201C3C4030403C44281028444C7D
:101F50009090907C4464544C44000836410000004A
:101F6000770000004136080002010204023C2623EB
:101F7000263C1EA1A161123A4040207A38545455A3
:101F8000592155557941225454784221555478406D
:101F900020545579400C1E527212395555555939F5
:101FA0005454545939555454580000457C4100024A
:101FB000457D420001457C407D1211127DF02825AF
:101FC00028F07C545545002054547C547C0A097FE9
:101FD0004932494949323A4444443A324A484830FD
:101FE0003A4141217A3A42402078009DA0A07D3DAF
:101FF0004242423D3D4040403D3C24FF2424487E37
:102000004943662B2FFC2F2BFF0929F620C0887E21
:10201000090320545479410000447D413048484A26
:1020200032384040227A007A0A0A727D0D19317DD9
:102030002629292F28262929292630484D402038AD
:102040000808080808080808382F10C8ACBA2F106C
:102050002834FA00007B000008142A142222142AD3
:1020600014085500550055AA55AA55AAFF55FF5505
:10207000FF000000FF00101010FF00141414FF00F8
:102080001010FF00FF1010F010F0141414FC0014D6
:1020900014F700FF0000FF00FF1414F404FC1414F4
:1020A00017101F10101F101F1414141F00101010F1
:1020B000F0000000001F101010101F10101010F082
:1020C00010000000FF101010101010101010FF1062
:1020D000000000FF140000FF00FF00001F101700A9
:1020E00000FC04F414141710171414F404F4000082
:1020F000FF00F714141414141414F700F714141434
:10210000171410101F101F141414F4141010F010D2
:10211000F000001F101F0000001F14000000FC143E
:102120000000F010F01010FF10FF141414FF141032
:1021300010101F00000000F010FFFFFFFFFFF0F085
:10214000F0F0F0FFFFFF0000000000FFFF0F0F0F97
:102150000F0F3844443844FC4A4A4A347E0202068F
:1021600006027E027E0263554941633844443C04C2
:10217000407E201E2006027E020299A5E7A5991C3A
:102180002A492A1C4C7201724C304A4D4D3030485D
:10219000784830BC625A463D3E494949007E0101BB
:1021A000017E2A2A2A2A2A44445F444440514A4450
:1021B0004040444A51400000FF0103E080FF00001E
:1021C00008086B6B083612362436060F090F060016
:1021D0000018180000001010003040FF0101001F1F
:1021E00001011E00191D1712003C3C3C3C00000080
:1021F00000002200FF21000103070F1F3F7F008026
:10220000C0E0F0F8FCFEDB40A4A62EAF2000A1C881
:10221000D300408DAED580A80123022304230823D8
:1022200080230129022904290829402680264029E3
:102230008029102320234023802F402F202F102F70
:10224000022F012F10292029402C00010405060728
:102250000D0C0B0A09080A0B0C0D070605040100FA
:1022600008000100003D231200020000A9227300B3
:102270002201001C23210021010005230900030085
:1022800000A52204010309048B22181803540065D9
:102290000065006E007300790020004D0049004485
:1022A0000049000000040309040902730002010050
:1022B000C0320904000002010300000724010001EC
:1022C0004100062402010100062402020200092442
:1022D00003010301020100092403020401010100BA
:1022E000090504024000000000052501010109055F
:1022F00083024000000000052501010309040100DC
:10230000020300000009211101000122210007053C
:1023100081034000010705020320000206C9FF09EE
:1023200004A15C7508150026FF009540097581021F
:1023300095200976910295040976B102C012010038
:102340000200000040C01685047102000100010176
:10235000C13601C026018136018036003E13342586
:102360006E34883DA61311241FBECFEFDAE0DEBF26
:10237000CDBF11E0A0E0B1E0E6E9FCE702C00590C6
:102380000D92A23DB107D9F725E0A2EDB1E001C061
:102390001D92A13FB207E1F711E1C2EBD1E104C008
:1023A0002197FE010E94FE3DCE3AD107C9F70E9457
:1023B00068350C943F3E0C940000019738F0EFE92B
:1023C000FFE03197F1F700C00000F7CF08952091AA
:1023D000E90084E08093E90088E592E03091E8002C
:1023E00035FD06C00197D1F72093E90080E00895FC
:1023F0002093E90081E00895FB0101900020E9F7B6
:102400003197AF01461B570BDC01ED91FC91028027
:10241000F381E02D0994462F50E070E060E020E069
:102420000C94FA3461E00C942225DC01ED91FC91CE
:102430000190F081E02D0994DC01ED91FD91808106
:10244000ED91FD919081ED91FD916C9163708E23E2
:1024500009F064609F2309F06860E9E3F2E1E60FA8
:10246000F11D659565956D936D917D918D919D9112
:10247000099423C01AC012C016C010C01EC009C0E3
:1024800014C013C006C019C009C00DC007C00DC0DC
:1024900014C062507040804090400BC0615070404A
:1024A0008040904006C06E5F01C06F5F7F4F8F4FCE
:1024B0009F4F9E938E937E936E930895CF93DF9359
:1024C000EC0122E1269FC001279F900D1124FC0101
:1024D000E25FFB4FE491E883FC01E15FFB4FE49195
:1024E000E983BC01605F7B4F40E150E0CE01029682
:1024F0000E941D3ECE01DF91CF910895CF93DF93CF
:10250000EC0122E1269FC001279F900D1124FC01C0
:10251000E65AFC4FE491E883FC01E55AFC4FE49154
:10252000E983BC01645A7C4F40E150E0CE01029641
:102530000E941D3ECE01DF91CF9108958150990BED
:102540009C012F703327809106019091070102C0F2
:10255000969587952A95E2F781700895CF93DF933A
:10256000C82F21E2629FC00111246FE770E00E9432
:10257000AD3DD62F83ED92E00E943B3220E8C29F12
:10258000F0011124E65AFF4FE80FF91F80E09FE7A2
:1025900021E4882311F0823241F490838F5F3196D9
:1025A0008332B9F7DF91CF910895D817B0F7208320
:1025B000F5CF8F929F92AF92BF92CF92DF92EF9220
:1025C000FF920F931F930FB6F894C0906105D090BF
:1025D0006205E0906305F09064050FBE0091D7019D
:1025E0001091D8012091D9013091DA0146015701AB
:1025F000801A910AA20AB30A95018401C092D701F8
:10260000D092D801E092D901F092DA01023311059B
:102610002105310590F4AFE0B0E00F301105210540
:10262000310538F00E3111052105310588F4A6E099
:10263000B0E09B01AC010E94133E1F910F91FF90EF
:10264000EF90DF90CF90BF90AF909F908F900895C4
:10265000660F771F881F991FF0CF2A9884E690E0B5
:10266000ACDEF89481E08093E00080E28093D800B3
:1026700084E190E0A2DE0C94000008958F929F9276
:10268000AF92BF92CF92DF92EF92FF920F93CF93D0
:10269000DF9380E8882E8AE1982E86E0A82EB12C60
:1026A00090E8C92E9AE1D92E96E0E92EF12C0FEF91
:1026B00022E133E040E460E883ED92E00E94902D57
:1026C0002198299A6E98769AEBE1F2E2E491CE2F66
:1026D000D0E0D093C802C093C702EAE1F2E244918D
:1026E0004093CB02E9E4F2E2A491B0E0B093CA02D5
:1026F000A093C902E8E4F2E2E491E093CC021092E4
:10270000CE021092CF021092D0021092D10220E499
:102710003FE1C9010197F1F79881842F892391E066
:1027200009F490E08C91E82309F092609093CD0237
:102730001092D202DF91CF910F91FF90EF90DF9036
:10274000CF90BF90AF909F908F90089583ED92E0CF
:102750000C94DA2D0F93CF93DF93D62F042FCFEF66
:10276000C80FCF70C06B6C2F81ED93E00E9489334E
:10277000DF776D2F81ED93E00E9489330F77602F13
:1027800081ED93E00E9489338091E70181110AC0B5
:102790001EDE882339F02D2F4C2F6BE089E695E063
:1027A0000E94283BDF91CF910F9108950F93CF9313
:1027B000DF93D62FCFEFC80FCF70C06C6C2F81ED99
:1027C00093E00E948933DF776D2F81ED93E00E94C3
:1027D00089338091E70181110BC0F9DD882341F035
:1027E00000E02D2F4C2F6CE089E695E00E94283BFD
:1027F000DF91CF910F9108950F931F93CF93DF93A4
:10280000D82F162FC42F1092E70198DE02E18823FB
:1028100009F44EC080EC8C0F8F3330F581E080934B
:10282000E701C0E0EBE5F3E010E000E08491C813BD
:1028300027C02D2F2150330BF901EE0FFF1FE7505A
:10284000FE4F1183008380910E0178DE882341F0D2
:102850001093C6020093C5021093C4020093C302F2
:1028600081E08093040112C0C931E1F2CF37D1F287
:102870008C2F8770B9F2C87F81E08093E701D2CFB7
:102880000F5F1F4F72960A30110581F68091E701A4
:10289000882349F040E060E08D2F5CDF6C2F8D2FA6
:1028A00085DF1092E701DF91CF911F910F9108957D
:1028B000782FA1E6B1E050E040E0CD01841B950BFC
:1028C00095958795840F951F089F9001099F300D5E
:1028D0001124F901E25FFB4F6491215F3B4FF90145
:1028E0002491161332C02C17A1F02C1780F5AC01DF
:1028F0004F5F5F4FA417B50704F71E3738F010E09D
:1029000081E0C837A8F27093E701C0CF71E010E012
:10291000D0CF8F3F980789F37093E7012D2F215077
:10292000330BF901EE0FFF1FE750FE4F91838083B9
:1029300020910E012D1394CF9093C6028093C5026F
:102940009093C4028093C3028BCF611780F2DC01A5
:102950001197D0CFFF920F931F93CF93DF93CDB7F3
:10296000DEB762970FB6F894DEBF0FBECDBF8C0105
:1029700080910E01E3DDB801882351F1CE0101966B
:10298000BDDDF9804F2D60E08AE0E4DE6A818AE0F7
:102990000DDF1093C4020093C30280910E01815099
:1029A000990BFC01EE0FFF1FE750FE4F11830083D0
:1029B00087519E4FFC01F08262960FB6F894DEBFFD
:1029C0000FBECDBFDF91CF911F910F91FF90089562
:1029D000CE01019673DDF9804F2D60E080910E01EC
:1029E000B9DE6A8180910E01D3CF0F931F93CF93ED
:1029F000DF938C01C62FD0E0AE01BC0181ED93E0E6
:102A00000E947F34E4DC882351F0A801BE0189E6EE
:102A100095E0DF91CF911F910F910C94F53ADF91E2
:102A2000CF911F910F910895CF93DF93CDB7DEB76C
:102A30002B970FB6F894DEBF0FBECDBF90EF9983F2
:102A400091E49A8390E19B8392E49C8392E19D833D
:102A500097EF9B878E836F8348872987860F9927F7
:102A6000991F480F592F511D240F352F311D2195C6
:102A70002F772A874BE050E0BE016F5F7F4F81EDDB
:102A800093E00E947F34A3DC882349F0AE014F5FBE
:102A90005F4F6BE070E089E695E00E94F53A2B9677
:102AA0000FB6F894DEBF0FBECDBFDF91CF91089572
:102AB000AF92BF92CF92DF92EF92FF920F931F934C
:102AC000CF93DF93182F83ED92E00E941B2F61E0DC
:102AD00083ED92E00E94AA2C1092DF021092DE0297
:102AE0008FE090E09093E1028093E0026AE273E06D
:102AF00083ED92E00E94A7341092DF021092DE0272
:102B000083E290E09093E1028093E0021130F1F0D3
:102B100098F0123009F4C0C0143011F5EEE0F4E082
:102B2000D0E0C0E08491882399F121967296C23654
:102B3000A1E0DA07B9F72AC069E173E083ED92E01A
:102B40000E94A7346BE088E391E009C068E073E07D
:102B500083ED92E00E94A73466E082E391E045DFD6
:102B600083ED92E00E943F3284EF91E026DC123048
:102B7000A9F6EEE0F4E0D0E0C0E084918F3741F0B8
:102B800021967296C23681E0D807B9F7D0E0C0E04E
:102B900099EFC92E91E0D92E29EEA22E21E0B22E76
:102BA00032E2E32E31E0F32E00E0F601C193D1933F
:102BB0006F01D5011D925D010F5F123029F4F701FD
:102BC00040816FE7802F18DEF60132978081918176
:102BD0009093C6028093C50200930E01143009F051
:102BE000B9DEBFEFEB1AFB0A0031F9F688E1E82EF7
:102BF00081E0F82E60E0C1E0C60F123071F460622F
:102C00002CE440E180E410DF40E46BE58C2FA2DD92
:102C1000D7014C916AE08C2F9DDDBFEFEB1AFB0AC8
:102C20006C2FCA3041F780E092E0909307018093C7
:102C3000060140E150E064E670E089E392E00E9422
:102C4000383E40E150E068E270E089E292E00E94A4
:102C5000383EE9E1F2E080E1DF011D928A95E9F773
:102C6000123061F44AE050E060E470E089E292E002
:102C70000E94383E40E56BE08AE06CDD81E08093A5
:102C80000E01DF91CF911F910F91FF90EF90DF9098
:102C9000CF90BF90AF90089565EF72E04FCF0F9344
:102CA0001F93CF93DF9383ED92E00E941B2F61E08F
:102CB00083ED92E00E94AA2C81E090E09093E502DF
:102CC0008093E4029093E3028093E2021092DF0289
:102CD0001092DE021092E1021092E00265EE72E0C4
:102CE00083ED92E00E94A73482E690E09093DF02A9
:102CF0008093DE021092E1021092E00261EE72E037
:102D000083ED92E00E94A73401E010E020E830E07B
:102D10004AE050E070E060E083ED92E00E94C5314F
:102D200080910F01823078F520E830E047E350E0F1
:102D300070E060E083ED92E00E94C5311092DF0206
:102D40001092DE02C9E3D0E0D093E102C093E0022A
:102D50006CED72E083ED92E00E94A73485E590E08F
:102D60009093DF028093DE02D093E102C093E002F1
:102D700067ED72E083ED92E00E94A73481E08093DA
:102D800003011092C20283ED92E0DF91CF911F9177
:102D90000F910C943F32CF93DF9383ED92E00E942A
:102DA0001B2F62E083ED92E00E94AA2C1092E302B6
:102DB0001092E202C1E0D0E0D093E502C093E402B9
:102DC00089E090E09093DF028093DE028FE090E054
:102DD0009093E1028093E00260E573E083ED92E07E
:102DE0000E94A73461E083ED92E00E94AA2CD09368
:102DF000E302C093E2021092E5021092E40285E041
:102E000090E09093DF028093DE028DE290E0909359
:102E1000E1028093E0026BE373E083ED92E00E94B5
:102E2000A73483ED92E00E943F3240E06BE78C2FA5
:102E300091DC40E068E78C2F8DDCCF5FC131A9F7D2
:102E400088E592E0BADA81E08093040180930B0177
:102E5000DF91CF9124CF84E02BDE81E080930401C9
:102E600080930B011CCF0F934FEF60E470E081ED76
:102E700093E00E94CB332098289A57985F988091CE
:102E80007D008B7F80937D002198299A6E98769A99
:102E90003F98479A229A2A9882E390E08EDA2A9AFB
:102EA00001E021E04CE362E083ED92E00E94392FE3
:102EB000811101C0FFCF0F91CECFAF92BF92CF92C1
:102EC000DF92EF92FF920F931F93CF93DF93182F10
:102ED000C62FF42ED22F83ED92E00E943B326C017C
:102EE000212F2F0D3327331F213831051CF080E8A7
:102EF000F82EF11A2C2F2D0F3327331F29303105CF
:102F000014F0D8E0DC1B0FEF010F0F0DBB24BA94B7
:102F1000BC0EBD0E6CE382E193E00E94182570E0C8
:102F200060E082E193E081DA61E270E082E193E0C7
:102F30007CDA612F82E193E00E949424602F82E189
:102F400093E00E94942462E270E082E193E06DDA03
:102F50006C2F82E193E00E9494246B2D82E193E038
:102F60000E94942482E193E05DDABC1670F130E8AF
:102F7000C39F70011124A12ED0E0EC0CFD1C0A159A
:102F8000E8F0D1110AC06CE382E193E00E941825B9
:102F900060E470E082E193E048DAF701EA0DF11DA8
:102FA000608182E193E00E949424DF5FD03120F0C1
:102FB00082E193E037DAD0E0A394E1CFDD2319F08A
:102FC00082E193E02FDACF5FD0CFDF91CF911F91D5
:102FD0000F91FF90EF90DF90CF90BF90AF9008954A
:102FE000EF92FF920F931F93CF93DF93CDB7DEB78E
:102FF000A4970FB6F894DEBF0FBECDBF61E083ED9E
:1030000092E00E94AA2C81E090E09093E5028093E8
:10301000E4029093E3028093E20280910E018EDA43
:103020006091C5027091C602882309F420C1CE01C7
:10303000439664DA80910E0181DA6091C302709147
:10304000C402882309F417C1CE01019657DA809192
:103050000F01823040F590910E018091C2029817C5
:1030600011F1F12CE12C08E010E02EE030E050E00E
:1030700040E062E770E083ED92E00E943A2882E748
:1030800090E09093DF028093DE021092E1021092B2
:10309000E00260910E0183ED92E0BDD921E04BE0AA
:1030A00060E082E70ADF80910F01813009F0E7C01C
:1030B00090910E018091C202981771F0F12CE12CD1
:1030C00008E010E02BE630E040E150E070E060E026
:1030D00083ED92E00E943A28F12CE12C08E010E008
:1030E00029E530E040E250E063E270E083ED92E0F9
:1030F0000E943A2880910F01823009F474C208F0CE
:10310000ECC0882309F40CC2813009F4C6C1809157
:103110000F01813009F0F5C390910E018091C20238
:10312000981771F021E04BE662E080E0C6DE21E016
:1031300043E264E080E0C1DE80910E018093C20230
:1031400021E049E564E083E2B8DE80914F0222E0AD
:1031500040E865E08111ECC380910F01823008F0F6
:1031600079C0F12CE12C07E010E028E330E049E3DE
:1031700050E068E170E083ED92E00E943A2888E137
:1031800090E09093DF028093DE0289E390E09093D9
:10319000E1028093E0026A8183ED92E03CD9E09104
:1031A0000E01F0E0E851FE4F99818081981751F0AF
:1031B0001092E3021092E20281E090E09093E50227
:1031C0008093E4026CEA70E083ED92E00E94A73401
:1031D000E0910E01F0E0E851FE4F608183ED92E056
:1031E0001AD981E090E09093E3028093E20210927A
:1031F000E5021092E402F12CE12C07E010E022E15C
:1032000030E049E350E06EE670E083ED92E00E942A
:103210003A288EE690E09093DF028093DE0289E305
:1032200090E09093E1028093E0026091C10283ED0F
:1032300092E0F1D821E046E367E088E13EDE80914C
:103240000301882329F021E041E167E08EE635DEC5
:1032500010920301A4960FB6F894DEBF0FBECDBF47
:10326000DF91CF911F910F91FF90EF900895CE01C4
:10327000439624D9DFCECE01019620D9E8CE811124
:103280001DC080910B01882371F0F12CE12C08E026
:1032900010E02BE630E040E150E070E060E083EDCC
:1032A00092E00E943A28F12CE12C03E110E029E59C
:1032B00030E04CE150E06AE070E018CFF12CE12CF6
:1032C00002E310E02DE730E0853011F020E730E038
:1032D0004BE050E070E060E009CF843009F466C252
:1032E00008F4F4C1853009F012CF85E090E09093A6
:1032F000DF028093DE028EE090E09093E102809303
:10330000E0028091E80164E071E0811108C08091E1
:1033100049026CE071E0811102C068E071E083ED68
:1033200092E00E94A73464EF70E083ED92E00E9487
:10333000A7346091050183ED92E06DD885E090E0BF
:103340009093DF028093DE0288E190E09093E102A7
:103350008093E0028091E80169EE70E0813041F4F1
:103360008091490261EF70E0811102C06DEE70E062
:1033700083ED92E00E94A73463EE70E083ED92E06B
:103380000E94A734E0910501F0E0E85CFD4F108158
:10339000612F83ED92E03FD8612F83E0DFD885E095
:1033A00090E09093DF028093DE0282E290E09093BF
:1033B000E1028093E0028091E80168ED70E08230E4
:1033C00041F48091490260EE70E0811102C06CED21
:1033D00070E083ED92E00E94A73462ED70E083ED2F
:1033E00092E00E94A734E0910501F0E0E85DFD4F16
:1033F0001081612F83ED92E00ED8612F84E0AED86A
:1034000085E090E09093DF028093DE028CE290E012
:103410009093E1028093E0028091E80167EC70E014
:10342000833041F4809149026FEC70E0811102C059
:103430006BEC70E083ED92E00E94A73461EC70E0E9
:1034400083ED92E00E94A734E0910501F0E0E85E90
:10345000FD4F1081612F83ED92E00E940B12612FCE
:1034600085E07CD885E090E09093DF028093DE02D7
:1034700086E390E09093E1028093E0028091E8017E
:103480006DEB70E0843011F069EB70E083ED92E059
:103490000E94A73460EB70E014C11092DF0210921A
:1034A000DE0280E190E09093E1028093E00280915F
:1034B0000E0144D864EC72E0811102C063EB72E04B
:1034C00083ED92E00E94A73485E090E09093DF02C4
:1034D0008093DE0280E290E09093E1028093E0022C
:1034E0006DEA72E083ED92E00E94A734BE016D5F49
:1034F0007F4F83ED92E00E94FC1181E090E0909379
:10350000DF028093DE028CE290E09093E1028093F0
:10351000E00268EA72E083ED92E00E94FC11F7CDD0
:10352000F0900E018F2D0AD80AE010E0811102C040
:1035300002E611E01092DF021092DE0280E190E0DC
:103540009093E1028093E0028F2D0E949E126AE91F
:1035500072E0811102C069E872E083ED92E00E949E
:10356000A7348AE0E82EF12CF092DF02E092DE022E
:103570008CE190E09093E1028093E0024091C502DB
:103580005091C6024F5F5F4F052E000C660B770B04
:1035900083ED92E00E945C3567E872E083ED92E093
:1035A0000E94A734A801110F660B770B83ED92E000
:1035B0000E945C3563E872E083ED92E00E94A734DC
:1035C0006C8983ED92E00E940B12F092DF02E09290
:1035D000DE0287E290E09093E1028093E002BE0178
:1035E0006B5E7F4F98CF87E090E09093DF028093EF
:1035F000DE028EE090E09093E1028093E0026FE6BD
:1036000072E083ED92E00E94A7348AE090E090930C
:10361000DF028093DE0288E190E09093E1028093E4
:10362000E00280914C026FE572E0882311F06FE4B4
:1036300072E083ED92E00E94A7348AE090E09093DC
:10364000DF028093DE0282E290E09093E1028093B9
:10365000E00280914C0262E472E0813011F065E397
:1036600072E083ED92E00E94A7348AE090E09093AC
:10367000DF028093DE028CE290E09093E10280937F
:10368000E00280914C0264E272E0823011F063E16A
:1036900072E083ED92E00E94A7348AE090E090937C
:1036A000DF028093DE0286E390E09093E102809354
:1036B000E00280914C0266E072E0833011F069EF25
:1036C00071E083ED92E00E94A73421CD84E090E088
:1036D0009093DF028093DE028EE090E09093E1020F
:1036E0008093E00264EE71E083ED92E00E94A734E3
:1036F0008AE090E09093DF028093DE0288E190E020
:103700009093E1028093E00280914B0268ED71E0BA
:10371000882311F06CEC71E083ED92E00E94A734F5
:103720008AE090E09093DF028093DE0282E290E0F4
:103730009093E1028093E00280914B0260EC71E093
:10374000813011F064EB71E083ED92E00E94A734C8
:103750008AE090E09093DF028093DE028CE290E0BA
:103760009093E1028093E00280914B0266EA71E05F
:10377000823011F068E971E083ED92E00E94A73495
:103780008AE090E09093DF028093DE0286E390E08F
:103790009093E1028093E00280914B026CE871E02B
:1037A000833009F48ECF60E871E08BCF84E090E045
:1037B0009093DF028093DE028EE090E09093E1022E
:1037C0008093E0026BE671E083ED92E00E94A73403
:1037D00085E090E09093DF028093DE0288E190E044
:1037E0009093E1028093E00280914A026FE571E0DC
:1037F000811108C08091490267E671E0811102C021
:1038000063E671E083ED92E00E94A73462E571E027
:1038100083ED92E00E94A73460910A0183ED92E06B
:103820000E940B1285E090E09093DF028093DE020D
:1038300082E290E09093E1028093E00280914A025C
:1038400066E471E0813041F4809149026EE471E0F8
:10385000811102C06AE471E083ED92E00E94A73416
:1038600069E371E083ED92E00E94A7346091090161
:1038700083ED92E00E940B1285E090E09093DF02CE
:103880008093DE028CE290E09093E1028093E0026C
:1038900080914A026DE271E0823041F480914902E8
:1038A00065E371E0811102C061E371E083ED92E0B4
:1038B0000E94A73460E271E083ED92E00E94A73499
:1038C0006091080183ED92E00E940B1285E090E088
:1038D0009093DF028093DE0286E390E09093E10212
:1038E0008093E00280914A026CE171E0833011F034
:1038F00068E171E083ED92E00E94A7346FE071E02F
:10390000E0CE811110C080910B01882339F021E0B5
:103910004BE662E080E0D1DA10920B0123E042E650
:1039200063E08AE006C0853031F427E04DE761E0CE
:1039300080E0C3DA11CC90910B01992391F021E042
:1039400040E761E080E0B9DA21E04DE762E080E045
:10395000B4DA25E040E763E080E0AFDA10920B01D3
:10396000FBCB25E040E18430D9F644E163E085E01B
:10397000A4DA25E041E163E08FE5DBCF5F926F924F
:103980007F928F929F92AF92BF92CF92DF92EF92EF
:10399000FF920F931F93CF93DF93D82FC92F83EDFF
:1039A00092E00E943B322D2F3C2F70E060E0882493
:1039B0008394912C790140E150E0D7010D917D0174
:1039C0005A01E3E0B594A794EA95E1F7B694BA2CCE
:1039D000AA24B794A794FA01E770FF27D40102C084
:1039E000AA0FBB1FEA95E2F76A2E7A2E7094EB01BC
:1039F000A4E0B0E010E0C031D1059CF4F501EC0F7B
:103A0000FD1FE059FF4FE80FF91F508068010A2E93
:103A100002C0D594C7940A94E2F7C0FE41C056286C
:103A2000508211972196AF3FBA0729F74F5F5F4F3A
:103A30004032510511F66B5F7F4F205F3F4F64317D
:103A4000710509F0B7CF22E040E162E080E735DAA6
:103A50000FB6F8948091610590916205A09163057D
:103A6000B09164050FBE8093500290935102A093D1
:103A70005202B093530281E080934F0280930D0174
:103A8000DF91CF911F910F91FF90EF90DF90CF903A
:103A9000BF90AF909F908F907F906F905F900895B0
:103AA0005720BECFEF92FF920F931F93F12CE12C82
:103AB00000E110E020E130E040E150E060E770E03C
:103AC00083ED92E00E943A2822E040E162E080E744
:103AD000F4D9E8EAF2E080E28083118208E010E0A5
:103AE00020E830E04CE250E070E060E083ED92E0EE
:103AF0000E943A2822E040E865E080E0DED910929A
:103B00004F021F910F91FF90EF9008950F931F9315
:103B1000CF93DF938C01EB01C5DF2A97C531D10527
:103B200010F0C4E1D0E0B801685F7F4FAE0188EAD1
:103B300092E00E942F3EC855DD4F18820FB6F894D0
:103B40008091610590916205A0916305B091640533
:103B50000FBE8093500290935102A0935202B093F3
:103B6000530281E080934F0280930401DF91CF9153
:103B70001F910F910895CF93C82F682F81ED93E087
:103B80000E948933C03F49F481E0809356028093BC
:103B90005702C0935802CF9108958091560288230E
:103BA000D1F3C7FF02C0C73FB1F7E0915702E0353C
:103BB00060F561E06E0F60935702F0E0E85AFD4F48
:103BC000C083C73F41F7109256021092570280916E
:103BD00059026A3008F470C0813409F06DC08091D8
:103BE0005C028231C1F690915D0280915E026A347E
:103BF00079F4903181F6813071F680915F02811104
:103C0000CACF80E692E0CF91B9CE10925602C3CFD0
:103C100020915B02263141F4903209F0BCCF70E074
:103C200088E592E0CF9172CF253431F4903109F0DC
:103C3000B2CF8111B0CFF3CF223409F0ACCF9034A2
:103C400009F0A9CF90915F02953159F5982F907F97
:103C5000903109F0A0CF8F70E9F08A3008F08F5FC3
:103C60008150990B21E030E0A90102C0440F551F9B
:103C70008A95E2F7CA01209106013091070140912F
:103C80006002442349F0822B932B90930701809389
:103C9000060181CF8AE0E4CF80959095822393231B
:103CA000F4CF811178CF9F3709F075CF80916002F2
:103CB000811171CFCF91CFC88E3709F06CCF809131
:103CC0005A028F3709F067CF80915B02893009F083
:103CD00062CF80915C02813009F05DCFEBCFCF9352
:103CE000C82F6CE382E193E0A3D670E060E082E14C
:103CF00093E00E9415126C2F82E193E015D682E1C9
:103D000093E0CF910C941212CF92DF92EF92FF9238
:103D10000F931F93CF93DF93379907C088EC90E000
:103D20000E94DD11379B0E942D1311E0CC24C39417
:103D3000D12C60E089E695E00E94683B81111CC0AF
:103D400012E0D1E081ED93E00E943A331816190693
:103D50000CF0BEC181ED93E00E946D337C01C82F51
:103D6000883F80F7803F29F080915602882309F42C
:103D70002AC18C2F00DFE6CFC0916A05C83FC9F287
:103D8000CE3FB9F200916905D0916B05F0906C05BA
:103D900010930D01C03F08F06DC06FEF600F6F70A2
:103DA0002C2F207FE22E622B81ED93E00E9489333D
:103DB0006D2F81ED93E00E94893330ECE3120EC049
:103DC000C03B09F04AC0D730B9F118F5DD2361F1E5
:103DD0006C2F81ED93E00E948933ABCF40EDE4126C
:103DE0000EC08C2F807E803809F4A3CF90EAE916AC
:103DF00009F49FCF20EDE21609F49BCFE1CF6F2DA0
:103E000081ED93E00E94893380EEE81609F491CFAA
:103E1000E8CFDB35D9F0DD35D9F6802F8150990B0D
:103E2000FC01E75EFD4F0EC0E02FF0E0E851FE4FD1
:103E3000F082109304017DCF802F8150990BFC01FB
:103E4000E75CFD4F80818F11F3CF73CF202F21507E
:103E5000330BF901E75DFD4FF5CFC03C09F0B8CF5A
:103E6000E02FF0E0E851FE4F4D2F6081802F0E943F
:103E7000FC135FCFC03F09F0ABCFEF2CF12CFE2C31
:103E8000EE24ED0EF11C9AE4E916F10449F1A701C4
:103E90006DE675E081ED93E00E947F342AE0E21642
:103EA000F104F4F480916E058E3709F007C5809116
:103EB0006F058F3709F002C580917005893009F0D0
:103EC000FDC480917105813009F0F8C4DF91CF9174
:103ED0001F910F91FF90EF90DF90CF900C942B17D4
:103EE00080916E05813409F0E9C4809171058231B9
:103EF00009F0E4C480916F058051803108F0DEC480
:103F0000909172058091730520917005223469F0BB
:103F10002534D1F1263109F05BCF903209F058CF2A
:103F2000B7018DE695E0F2DD53CF903469F59091BD
:103F30007405953109F03DC0982F907F903109F0BC
:103F400047CF8F70D1F08A3008F08F5F8150990B86
:103F5000960102C0220F331F8A95E2F78091060175
:103F60009091070140917505442349F0822B932BD2
:103F700090930701809306012BCF8AE0E7CF20952D
:103F8000309582239323F4CF903109F021CF8823F9
:103F900039F23AE4E316F10409F01ACF813009F05E
:103FA00017CF80917405811113CF85E795E0E6DC8A
:103FB0000FCF81110DCF9F3709F00ACF8091750582
:103FC000811106CF83CF6E2D81ED93E00E9489335E
:103FD0008091D201882321F081508093D201B2CE0A
:103FE000C701807F9927803A9105D9F0A4F48038E1
:103FF0009105B9F080399105A1F0E7FE1BC0C03FE3
:10400000B0F48C2F807F8093D601CF70C093D30102
:10401000D093D50197CE803D910531F0803E91053A
:1040200061F71093D2018ECED093D2018BCE109235
:10403000D50188CE0091D501002309F483CE01304B
:10404000B9F4C093D4018091D601803C71F4809181
:10405000D301E82FF0E0E751FE4F4C2F60818F5FD6
:104060000E94FC130093D5016DCE1093D5016ACE4A
:10407000023009F067CE8091D601803B49F68091ED
:10408000D401811109C0E091D301F0E0E751FE4F66
:10409000C083D0930401BCCF873049F4E091D301B1
:1040A000F0E0E75CFD4F80818C13F2CFB1CF8B3510
:1040B00031F4E091D301F0E0E75DFD4FF4CF8D35B1
:1040C00009F0A6CFE091D301F0E0E75EFD4FEBCF22
:1040D0000FB6F8948091610590916205A0916305F7
:1040E000B09164050FBE2091BD023091BE02821BCB
:1040F000930B4E9708F43CC00FB6F894809161057D
:1041000090916205A0916305B09164050FBE9093F4
:10411000BE028093BD028CE00E94E836EC018091E3
:10412000BF029091C0026E01C81AD90AC601D7FE1B
:1041300003C09195819591090697D4F09E01E3E023
:1041400035952795EA95E1F78091C102821761F0D4
:104150002093C10244E060E080E40E94141581E0F5
:104160008093030180930401D093C002C093BF02E7
:104170008091D202823008F0F4C0F89487EC92E08B
:104180000E941C120091CE021091CF022091D00209
:104190003091D10278948091DF019091E001A0915B
:1041A000E101B091E20168017901C81AD90AEA0A6D
:1041B000FB0AC701B6014FEFC41AD40AE40AF40A95
:1041C00043E0C416D104E104F10420F10093DF01BF
:1041D0001093E0012093E1013093E20122E030E00E
:1041E00040E050E00E94E23DCA01B9010E94D912AC
:1041F0006B017C0180910F01823009F422C108F02B
:10420000B2C0882309F4F0C0813009F4CCC081E049
:104210008093040183B1817090910201981779F025
:104220000FB6F89440916105509162056091630565
:10423000709164050FBE5093E6014093E5018093B1
:1042400002010FB6F89440916105509162056091AA
:104250006305709164050FBE2091E5013091E60180
:10426000421B530B4932510508F44EC09091010195
:10427000981709F449C080930101811136C08091DB
:104280000001813009F03CC00FB6F89480916105BF
:1042900090916205A0916305B09164050FBE909363
:1042A000E4018093E301C091DC01C13049F50FB610
:1042B000F8948091610590916205A0916305B09199
:1042C00064050FBE2091DD013091DE01821B930B4E
:1042D00088319140A8F40E94CB161092DC01C09363
:1042E000DB0180910101813059F48091000181113D
:1042F00007C08091DB01882309F4B6C11092DB016D
:104300008091010180930001D091DC01D13009F04E
:1043100019C20FB6F8948091610590916205A09141
:104320006305B09164050FBE2091DD013091DE017F
:10433000821B930B8831914008F404C2C0910F0195
:10434000C23009F0EAC180914C028111CFC183E0F3
:1043500080930F0110924B02D0930B010E944F16D5
:10436000ECC1F8940FCF843009F493C008F47DC0F9
:10437000853009F04CCF9091E8018091490281117C
:10438000FBC00C2C000CDD087601E90EF11C97FD3A
:10439000FA94C70165E070E00E94AD3D87FDEAC078
:1043A0008093E80134CF80910E018150990B8C0DE0
:1043B0009D1D60E170E00E94AD3D97FD4096E1E0FB
:1043C000E80FE0930E01E150FF0BEE0FFF1FE750E7
:1043D000FE4F808191819093C6028093C502909395
:1043E000C4028093C30213CF80910E010E949E12DB
:1043F000CAE0D0E0811102C0C2E6D1E06091C502FE
:104400007091C602072E000C880B990B6C0D7D1D58
:104410008E1D9F1D9E010D2E000C440B550B0E94FE
:10442000E23D77FD0BC07093C6026093C502809198
:10443000C5029091C6020E94AA14E9CE6C0F7D1F9E
:10444000F2CF20914C028C2DCC0C990B820F911D38
:1044500027FD9A9564E070E00E94AD3D87FD03C0A2
:1044600080934C02D4CE8C5FFBCF20914B028C2DDD
:10447000CC0C990B820F911D27FD9A9564E070E09A
:104480000E94AD3D87FD03C080934B02C0CE8C5F80
:10449000FBCF90914A0280914902811114C00C2CEB
:1044A000000CDD087601E90EF11C97FDFA94C701B6
:1044B00064E070E00E94AD3D87FD03C080934A0236
:1044C000A6CE8C5FFBCF91111DC080910A01C80E52
:1044D000D11CE11CF11C20E0F7FC0CC020E8C21646
:1044E000D104E104F1042CF06FE7C62ED12CE12CAD
:1044F000F12C2C2D20930A0144E060E080E40E941E
:10450000141585CE9130D1F480910901C80ED11CCB
:10451000E11CF11C20E0F7FC0CC030E8C316D1040C
:10452000E104F1042CF05FE7C52ED12CE12CF12C35
:104530002C2D2093090143E361E0E0CF923009F094
:1045400066CE80910801C80ED11CE11CF11C20E050
:10455000F7FC0CC040E8C416D104E104F1042CF0CF
:104560004FE7C42ED12CE12CF12C2C2D20930801E7
:104570004AE3E2CF8B5F14CF911110C08091050107
:104580008150990B8C0D9D1D60E170E00E94AD3D46
:1045900097FD40968F5F8093050139CE913009F5E4
:1045A00080910501282F2150330BF901E75CFD4F65
:1045B0009081C90ED11CE11CF11C40E0F7FC0CC03D
:1045C00030E8C316D104E104F1042CF03FE7C32E18
:1045D000D12CE12CF12C4C2D408367E00E94AA13D2
:1045E00016CE9230F9F480910501282F2150330B1B
:1045F000F901E75DFD4F9081C90ED11CE11CF11C52
:1046000040E0F7FC0CC030E8C316D104E104F1042B
:104610002CF02FE7C22ED12CE12CF12C4C2D408315
:104620006BE5DCCF933009F0F2CD80910501282FA6
:104630002150330BF901E75EFD4F9081C90ED11C6B
:10464000E11CF11C40E0F7FC0CC030E8C316D104BB
:10465000E104F1042CF09FE7C92ED12CE12CF12CC0
:104660004C2D40836DE5BACF0FB6F894809161056B
:1046700090916205A0916305B09164050FBE2091F1
:10468000E3013091E401821B930B80329340D8F018
:1046900080910F018250843068F481E080930F0193
:1046A000109249020E944F161092DC0181E0809323
:1046B000040126CE82E080930F0110924C0281E02B
:1046C00080930B01EFCF81E08093DC010FB6F8946B
:1046D0008091610590916205A0916305B091640598
:1046E0000FBE9093DE018093DD010ACE813051F43C
:1046F00094E090930F0110924A0210924902809325
:104700000B012CCE823009F09CC085E080930F0114
:104710001092E8011092490221CEC33009F094C0F2
:1047200080914B02833009F08AC082E080930F01B0
:104730000E944F1681E080930B011092DC0181E012
:104740008093040180910401882371F10FB6F894DD
:104750008091610590916205A0916305B091640517
:104760000FBE2091540230915502821B930B8A395F
:104770009240D0F081E080930D010E94F0171092DA
:1047800004010FB6F8948091610590916205A091A3
:104790006305B09164050FBE909355028093540257
:1047A00090934E0280934D028091D201811105C0F9
:1047B00080910D01882309F468C00FB6F8948091A8
:1047C000610590916205A0916305B09164050FBEEB
:1047D00090934E0280934D0210920D0180910C0136
:1047E000811102C08FEA7BDA80914F02882309F49D
:1047F00065C00FB6F8948091610590916205A09113
:104800006305B09164050FBE409150025091510272
:104810006091520270915302841B950BA60BB70B4B
:1048200088389341A105B10508F448C0DF91CF91C4
:104830001F910F91FF90EF90DF90CF9033C90E94AE
:104840005815D0930F018ACDC43061F480914A028B
:10485000833009F46ACF8091490291E089278093DF
:1048600049026BCFC53029F48091E801843099F773
:104870005CCFC13039F410920F010E944F16C093E3
:104880000B015BCFC11159CFDCCF0FB6F8948091EB
:10489000610590916205A0916305B09164050FBE1A
:1048A00020914D0230914E02821B930B80349C4923
:1048B00010F08EEA14DA10920C0196CFDF91CF91AE
:1048C0001F910F91FF90EF90DF90CF90089590E0AF
:1048D00080E0089580913E0390913F03891B990BDE
:1048E000089590913F0380913E032FEF3FEF98177B
:1048F00048F4E92FF0E0E05CFC4F208130E09F5F5E
:1049000090933F03C9010895E0913F0380913E03D6
:10491000E81730F4F0E0E05CFC4F808190E008950F
:104920008FEF9FEF08950895CF93DF931F92CDB738
:10493000DEB7698320911A032223E9F020911B033B
:10494000203248F021E0FC01228390E080E00F90CB
:10495000DF91CF91089580911C03E82FF0E0E35E92
:10496000FC4F998190838F5F80931C0380931B037E
:1049700081E090E0ECCF61E0CE010196E6D0F8CF87
:10498000CF92DF92EF92FF920F931F93CF93DF931B
:104990007C01CB018A0120911A03222389F0EB01CB
:1049A0006B01C40ED51ECC15DD0561F06991D701F0
:1049B000ED91FC910190F081E02DC7010995F3CFB5
:1049C000642FC3D0C801DF91CF911F910F91FF9049
:1049D000EF90DF90CF900895FC01128288EE93E073
:1049E000A0E0B0E083839483A583B683178287E435
:1049F00091E091838083089510923F0310923E03CB
:104A000010921C0310921B0332C09A01AB0160E0AC
:104A100074E284EF90E00E94C03D205131094109C9
:104A2000510956954795379527952093B8000895D5
:104A300081E080931A0360933D0310921C0310924F
:104A40001B0308950F93062F21E040911B036DE196
:104A500073E080913D0326D010921C0310921B033B
:104A600010921A030F91089582E193E0B5CF10924E
:104A7000CD0381E08093CB031092CA03599A589AD0
:104A800084B58F7D84BDE9EBF0E080818E7F8083EB
:104A900080818D7F808388E48093B80085E4809353
:104AA000BC0008950F93413208F047C09091CD03A8
:104AB0009111FCCF92E09093CD030093CB039FEF35
:104AC000909360031092A5034093A403362FA6EAA7
:104AD000B3E0FB019E2F931B941750F11092CC036F
:104AE0009091CC03880F892B8093CC038091CA03CB
:104AF000813009F51092CA038091CC038093BB00EA
:104B000085EC8093BC00222321F08091CD0382307C
:104B1000D1F3809160038F3F91F0809160038032E8
:104B200081F080916003803371F084E00F910895EB
:104B300091919D93CFCF85EEE4CF81E0F7CF80E0D8
:104B4000F5CF82E0F3CF83E0F1CF613298F420918A
:104B5000CD03243089F460938203282FA4E8B3E0C6
:104B6000FC018E2F821B861710F080E00895819142
:104B70008D93F7CF81E0089582E0089585ED8093CD
:104B8000BC008091BC0084FDFCCF1092CD03089541
:104B900085EC8093BC001092CD0308951F920F9274
:104BA0000FB60F9211242F933F934F935F936F9300
:104BB0007F938F939F93AF93BF93EF93FF938091D6
:104BC000B900887F803609F44AC008F03DC08832B9
:104BD00009F4A6C018F5803109F49AC0B8F4882306
:104BE00009F4F5C0883009F493C0FF91EF91BF91AB
:104BF000AF919F918F917F916F915F914F913F9175
:104C00002F910F900FBE0F901F901895883109F4C7
:104C100087C0803251F78093600314C0803409F458
:104C20009CC040F48033B9F38833F9F68093600375
:104C3000AFDFDBCF803509F484C0883509F495C037
:104C4000883499F69BDFD1CF883909F48CC038F5C8
:104C5000883729F050F4883611F0803731F683E038
:104C60008093CD031092610357C0883809F47BC04C
:104C7000803919F0803809F0B8CF80916103803213
:104C800008F071C0E091610381E08E0F80936103B1
:104C90008091BB00F0E0EE59FC4F80833DC0803B2B
:104CA00039F0E0F4803A09F479C0883A09F09DCFF0
:104CB00084E08093CD031092830310928203E091ED
:104CC000C803F091C90309958091820381110FC037
:104CD00081E0809382031092840309C0803C09F430
:104CE00074C0883C09F471C0883B09F07ECFE09124
:104CF000830381E08E0F80938303F0E0EC57FC4F39
:104D000080818093BB00909183038091820329C0AE
:104D10008091CC038093BB0085EC8093BC0065CF71
:104D20009091A5038091A403981758F5E091A503ED
:104D300081E08E0F8093A503F0E0EA55FC4F80815F
:104D4000E9CFE091A50381E08E0F8093A5038091C8
:104D5000BB00F0E0EA55FC4F80839091A503809161
:104D6000A4039817C8F285E8D8CFE091A50381E0A5
:104D70008E0F8093A5038091BB00F0E0EA55FC4FB5
:104D800080838091CB0381115DCF81E08093CA0342
:104D900084EA8093BC001092CD0327CF80916103F9
:104DA000803230F4E0916103F0E0EE59FC4F108264
:104DB0006091610370E0E091C603F091C70382E661
:104DC00093E009951092610333CF85ECE2CF109206
:104DD000600338CF08952F923F924F925F926F9267
:104DE0007F928F929F92AF92BF92CF92DF92EF927B
:104DF000FF920F931F93CF93DF9300D000D000D08A
:104E0000CDB7DEB73C016A013E832D83FC82EB8285
:104E10005801A41AB50AB7FE03C0B194A194B10811
:104E20008D809E80861A970A97FE03C09194819484
:104E300091088A149B045CF0902F812F0D811E81B4
:104E40009D838E839C2D8D2D6B01692F782F0C15E2
:104E50001D055CF09D818E817E836D83692F782F87
:104E6000902F812F8601C92ED82E1601201A310AC3
:104E70002B012D813E81421A530A57FE03C05194E3
:104E800041945108710137FE03C03FEFE31AF30A62
:104E9000F594E7948D819E81861797075CF5A1E0D4
:104EA000B0E0BA83A983C016D1064CF1D301ED91CD
:104EB000FC910484F585E02D2B813C81A8016D8156
:104EC0007E818A149B041CF04D815E81B801C30170
:104ED0000995E418F508F7FE0AC02D813E81898105
:104EE0009A81280F391F3E832D83E20CF31C0F5F3C
:104EF0001F4FD9CF2FEF3FEF3A832983D4CF269688
:104F00000FB6F894DEBF0FBECDBFDF91CF911F91DA
:104F10000F91FF90EF90DF90CF90BF90AF909F9058
:104F20008F907F906F905F904F903F902F9008955B
:104F30000895DC01ED91FC910084F185E02D099448
:104F40000F931F93DC01ED91FC91048CF58DE02D06
:104F500009951F910F9108950F931F93DC01ED9117
:104F6000FC91068CF78DE02D09951F910F91089506
:104F7000EF92FF920F931F93DC01ED91FC9100A043
:104F8000F1A1E02D09951F910F91FF90EF900895E9
:104F90008F929F92AF92BF92CF92DF92EF92FF9249
:104FA0000F931F93CF93DF93EC015B014A016901DB
:104FB0007801E881F9810284F385E02D0995C80C18
:104FC000D91C860101501109E881F9810488F5890D
:104FD000E02D9501A401B501CE010995E881F98183
:104FE0000688F789E02DCE01DF91CF911F910F91B7
:104FF000FF90EF90DF90CF90BF90AF909F908F90F9
:1050000009948F929F92AF92BF92CF92DF92EF92CC
:10501000FF920F931F93CF93DF93EC015B014A0143
:105020006901E881F9810284F385E02D09959501F4
:105030002C0D3D1D21503109E881F9810488F58945
:10504000E02D78018401A401B501CE010995E88124
:10505000F9810688F789E02DCE01DF91CF911F916C
:105060000F91FF90EF90DF90CF90BF90AF909F9007
:105070008F9009944F925F926F927F928F929F923E
:10508000AF92BF92CF92DF92EF92FF920F931F9356
:10509000CF93DF936C012B015A0139014801DC01E8
:1050A000ED91FC910284F385E02D0995E201640CF9
:1050B000751CD601ED91FC91C615D7055CF40088EE
:1050C000F189E02D87019401A501BE01C601099572
:1050D0002196EFCF0688F789E02DC601DF91CF91A9
:1050E0001F910F91FF90EF90DF90CF90BF90AF9006
:1050F0009F908F907F906F905F904F900994EF9268
:10510000FF920F931F93DC0119960D911C911A9732
:1051100017962D913C911897ED91FC9100A0F1A16B
:10512000E02D7B0150E040E070E060E009951F91C8
:105130000F91FF90EF9008956F927F928F929F92C0
:10514000AF92BF92CF92DF92EF92FF920F931F9395
:10515000CF93DF93EC016B015A0139014801E881DB
:10516000F9810284F385E02D0995E881F9810288AF
:10517000F389E02D87019301A501B601CE010995C0
:10518000A501480D591D41505109E881F981028856
:10519000F389E02D9301B601CE010995E881F981EB
:1051A0000088F189E02D9401A501B601CE01099591
:1051B000C60CD71CB60161507109E881F9810088DD
:1051C000F189E02D9401A501CE010995E881F981CD
:1051D0000688F789E02DCE01DF91CF911F910F91C5
:1051E000FF90EF90DF90CF90BF90AF909F908F9007
:1051F0007F906F90099408956F927F928F929F9203
:10520000AF92BF92CF92DF92EF92FF920F931F93D4
:10521000CF93DF935C01EB016A01490138018701FB
:10522000DC01ED91FC916217730719F564167506A0
:105230002CF0962D872D3A01C92ED82E96012619CD
:1052400037092F5F3F4F048CF58DE02DA301BE0180
:10525000C5010995DF91CF911F910F91FF90EF90BC
:10526000DF90CF90BF90AF909F908F907F906F9086
:1052700008954615570591F42617370724F0892D10
:105280004B01C22FD82F9E01281939092F5F3F4F9C
:10529000068CF78DE02DA601B401DACF0284F385E8
:1052A000E02D0995D501ED91FC910488F589E02D5B
:1052B00083019401A601BE01C5010995D501ED91B7
:1052C000FC910688F789E02DC501DF91CF911F91F0
:1052D0000F91FF90EF90DF90CF90BF90AF909F9095
:1052E0008F907F906F900994FC016370658B838130
:1052F000948125813681613039F0633029F09087BF
:105300008783328721870895308727839287818713
:105310000895FC01128289E591E091838083748372
:105320006383568345837087678352874187158AD5
:10533000148613861686158681E0848B838B2FEF67
:105340003FEF328B218B308B2787868B178A118E0C
:10535000108E08952F923F924F925F926F927F929C
:105360008F929F92AF92BF92CF92DF92EF92FF9275
:105370000F931F93CF93DF93CDB7DEB76A970FB626
:10538000F894DEBF0FBECDBF9A8F898F7A83698371
:105390004A01D22E18870F833701BC2CDC015896A6
:1053A0002D913C9159972115310509F015C117969A
:1053B0008D919C911897681779070CF0D7C11996B1
:1053C0008D919C91481759070CF0D0C14C2C512C51
:1053D000B6E0CB9E600D711D11247C876B8716167D
:1053E00017060CF0C3C1EA2DF0E0FA87E98793E0D5
:1053F000EE0FFF1F9A95E1F7F88BEF87CF01840F2F
:10540000951F181619060CF0B1C1A98DBA8D5796C3
:105410008C91811104C0BFEABD1508F4D394A98D05
:10542000BA8DED91FC9111970284F385E02DCD01A9
:105430000995B5E0DB9EC0011124E981FA81FC8366
:10544000EB83312C212C9C012E50334E388F2F8B27
:105450004A2D50E05E8B4D8BEF89F88DE20DF31DE8
:1054600044919E828D82D12CC12C69817A81620DFA
:10547000731D7A8B698B842F90E09C8B8B8BE98DCD
:10548000FA8DA081B18140FF82C0F1E0BF126FC0F0
:10549000AF126DC01C96ED91FC912F813885A4014F
:1054A0004C0D5D1D69897A89898D9A8D0995EB89E5
:1054B000FC89F595E7954E2F5FEFC51AD50A6D81EA
:1054C0007E818D899E89680F791F7E836D8398E028
:1054D000C916D10481F6AFEF2A1A3A0AEB81FC8192
:1054E000E40DF51DFC83EB83F5E02F16310409F084
:1054F000B3CF2F81388526153705B9F0A98DBA8D20
:10550000ED91FC91B1E0BB1257C0AB1255C069815F
:105510007A816B5F7F4F0088F189E02D830128E05D
:1055200030E0A401898D9A8D0995A98DBA8DED91F0
:10553000FC9111970688F789E02DCD016A960FB688
:10554000F894DEBF0FBECDBFDF91CF911F910F91B9
:10555000FF90EF90DF90CF90BF90AF909F908F9093
:105560007F906F905F904F903F902F9009941E9680
:10557000ED91FC91EF80F88409851A8592014D81A7
:105580005E816B817C81898D9A8D099590CF2F8169
:1055900038852615370509F48ACF31E0B31207C0E4
:1055A000A31205C01C96ED91FC91930178CF1E9635
:1055B000ED91FC917301E0CF6B857C8564197509D1
:1055C0000684F785E02D73010F8518899201A401E7
:1055D000898D9A8D0995A9CFF901349694913297C6
:1055E00045915491D91AB7E0DB9E400D511D11240D
:1055F000F901259134913C8B2B8BFA012590349045
:10560000FA013296749031963491398B32966490C7
:105610003196449041E04C1518F04A1508F07FC0CF
:10562000662D062C000C770B7C836B83842D042C59
:10563000000C990B9E838D83A98DBA8DED91FC9101
:1056400011970284F385E02DCD010995512CD12CC1
:10565000C12CEA2DF0E0FA87E9872B2D30E03C875A
:105660002B87A401440D511D47FC5A95588F4F8B31
:1056700069817A81660D711D67FC7A957E876D87D9
:105680007989C71608F051CF2C2D30E04D815E810D
:10569000420F531FA985BA854A9FC0014B9F900DA9
:1056A0005A9F900D1124FC01E80DF91DF88BEF872E
:1056B000852D612C4F89588D420F531F5E8B4D8B6A
:1056C000671408F050C044244394480E877041F496
:1056D000C1010196EB89FC89E20DF31DD4901C01F8
:1056E000D7FE19C0A98DBA8DED91FC91662D70E0A1
:1056F000B1E0BB1219C0AB1217C02D853E85620FF9
:10570000731F0484F585E02D2F8138854D895E89CE
:10571000898D9A8D0995DD0C6394842DD1CF1E82DD
:105720001D821C821B8288CF4B815C81640F751F98
:10573000AB85BC856A9FC0016B9F900D7A9F900DD1
:10574000112469817A81680F791F0684F785E02D1D
:10575000EF80F88409851A859D014F855889898DC8
:105760009A8D0995D8CF570CC3948ACF6A960FB6F5
:10577000F894DEBF0FBECDBFDF91CF911F910F9187
:10578000FF90EF90DF90CF90BF90AF909F908F9061
:105790007F906F905F904F903F902F9008958F92E1
:1057A0009F92AF92CF92EF92FF920F931F93CF935E
:1057B000DF93EC01262F888D998D009709F050C05A
:1057C0006A30D1F41C861B868C8948E0849F900146
:1057D00011248D859E85820F931F9E878D8781E082
:1057E00090E0DF91CF911F910F91FF90EF90CF90BC
:1057F000AF909F908F9008956D3089F3CB88AC88DF
:105800008E898823C1F08B859C8536E0C39E800DF0
:10581000911D11244F8158854817590764F44D850F
:105820005E851C861B8638E0A39EC0011124840F70
:10583000951F9E878D87E988FA880F8518894D8581
:105840005E856B857C85CE0185DD2B898B859C856E
:1058500046E0249F800D911D11249C878B87BFCF2C
:105860006A3069F41C861B86FC013896E4912C8909
:105870008D859E85E29F800D911D1124AECF6D30E8
:1058800009F4ADCFFC0134963491631708F4A7CF27
:105890003296E491E61708F4A2CFFC013296859087
:1058A0009490462F431B342F47E0349F800C911C6B
:1058B0001124F401329634913196E4913323A1F10D
:1058C000EE2391F1CB88F4013596E491AC884E89B2
:1058D000442301F10E2E000CFF0BE30FF11DCE9EB1
:1058E000A001CF9E500D11246B857C85460F571F5C
:1058F0006F817885641775076CF44D855E851C860D
:105900001B86FC013896E491AE9E400D511D11247A
:105910005E874D87E988FA880F8518894D855E85F1
:105920006B857C85CE0116DDF4013496E4912B89DC
:105930008B859C85E29F800D911D11248ECF611176
:1059400001C061E0FC01638B411101C041E0FC0139
:10595000448B0895462FF3CF9091D003992339F0CB
:105960008091CE03913011F48DBB08958FBF0895BF
:10597000289A209A8CB580618CBD8CB580648CBDD2
:10598000219A229A0895FC0177FD64C08781908551
:10599000681779070CF05EC057FD5CC08185928561
:1059A000481759070CF056C085898230B1F0833012
:1059B00029F1813041F483819481841B950BAB01E3
:1059C000BC01615071092130310509F108F443C06F
:1059D0002230310509F463C0089583819481DC018C
:1059E000A61BB70BBD016150710985819681DC0151
:1059F000A41BB50BAD0141505109E5CF85819681BE
:105A0000861B970BBA01AC0141505109DCCFCA018A
:105A100057FD0796A3E095958795AA95E1F7A38191
:105A2000B4818A9F90018B9F300D9A9F300D112475
:105A3000620F731F068CF78DE02DE60FF71F47707E
:105A4000552721E030E001C0220F4A95EAF7808116
:105A5000822B80830895CA0157FD079633E0959500
:105A600087953A95E1F7A381B4818A9F90018B9F36
:105A7000300D9A9F300D1124620F731F068CF78D25
:105A8000E02DE60FF71F4770552781E090E001C039
:105A9000880F4A95EAF7809590818923DACFCA0169
:105AA00057FD079623E0959587952A95E1F7A38101
:105AB000B4818A9F90018B9F300D9A9F300D1124E5
:105AC000620F731F068CF78DE02DE60FF71F4770EE
:105AD000552721E030E001C0220F4A95EAF7808186
